{"abi":[{"type":"constructor","inputs":[],"stateMutability":"nonpayable"},{"type":"receive","stateMutability":"payable"},{"type":"function","name":"DEFAULT_ADMIN_ROLE","inputs":[],"outputs":[{"name":"","type":"bytes32","internalType":"bytes32"}],"stateMutability":"view"},{"type":"function","name":"GOVERNMENT_ROLE","inputs":[],"outputs":[{"name":"","type":"bytes32","internalType":"bytes32"}],"stateMutability":"view"},{"type":"function","name":"OPERATOR_ROLE","inputs":[],"outputs":[{"name":"","type":"bytes32","internalType":"bytes32"}],"stateMutability":"view"},{"type":"function","name":"UPGRADE_INTERFACE_VERSION","inputs":[],"outputs":[{"name":"","type":"string","internalType":"string"}],"stateMutability":"view"},{"type":"function","name":"categoryRewards","inputs":[{"name":"","type":"uint16","internalType":"uint16"}],"outputs":[{"name":"","type":"uint256","internalType":"uint256"}],"stateMutability":"view"},{"type":"function","name":"depositFunds","inputs":[],"outputs":[],"stateMutability":"payable"},{"type":"function","name":"emergencyWithdraw","inputs":[{"name":"_to","type":"address","internalType":"address"},{"name":"_amount","type":"uint256","internalType":"uint256"}],"outputs":[],"stateMutability":"nonpayable"},{"type":"function","name":"getCategoryReward","inputs":[{"name":"_category","type":"uint16","internalType":"uint16"}],"outputs":[{"name":"","type":"uint256","internalType":"uint256"}],"stateMutability":"view"},{"type":"function","name":"getRoleAdmin","inputs":[{"name":"role","type":"bytes32","internalType":"bytes32"}],"outputs":[{"name":"","type":"bytes32","internalType":"bytes32"}],"stateMutability":"view"},{"type":"function","name":"getTreasuryBalance","inputs":[],"outputs":[{"name":"","type":"uint256","internalType":"uint256"}],"stateMutability":"view"},{"type":"function","name":"grantRole","inputs":[{"name":"role","type":"bytes32","internalType":"bytes32"},{"name":"account","type":"address","internalType":"address"}],"outputs":[],"stateMutability":"nonpayable"},{"type":"function","name":"hasRole","inputs":[{"name":"role","type":"bytes32","internalType":"bytes32"},{"name":"account","type":"address","internalType":"address"}],"outputs":[{"name":"","type":"bool","internalType":"bool"}],"stateMutability":"view"},{"type":"function","name":"initialize","inputs":[{"name":"_admin","type":"address","internalType":"address"}],"outputs":[],"stateMutability":"nonpayable"},{"type":"function","name":"proxiableUUID","inputs":[],"outputs":[{"name":"","type":"bytes32","internalType":"bytes32"}],"stateMutability":"view"},{"type":"function","name":"releaseRewards","inputs":[{"name":"_reportId","type":"bytes32","internalType":"bytes32"},{"name":"_category","type":"uint16","internalType":"uint16"},{"name":"_reporter","type":"address","internalType":"address"},{"name":"_validators","type":"address[]","internalType":"address[]"}],"outputs":[],"stateMutability":"nonpayable"},{"type":"function","name":"renounceRole","inputs":[{"name":"role","type":"bytes32","internalType":"bytes32"},{"name":"callerConfirmation","type":"address","internalType":"address"}],"outputs":[],"stateMutability":"nonpayable"},{"type":"function","name":"reporterRewardPercentage","inputs":[],"outputs":[{"name":"","type":"uint256","internalType":"uint256"}],"stateMutability":"view"},{"type":"function","name":"revokeRole","inputs":[{"name":"role","type":"bytes32","internalType":"bytes32"},{"name":"account","type":"address","internalType":"address"}],"outputs":[],"stateMutability":"nonpayable"},{"type":"function","name":"rewardsPaid","inputs":[{"name":"","type":"bytes32","internalType":"bytes32"}],"outputs":[{"name":"","type":"bool","internalType":"bool"}],"stateMutability":"view"},{"type":"function","name":"setCategoryReward","inputs":[{"name":"_category","type":"uint16","internalType":"uint16"},{"name":"_amount","type":"uint256","internalType":"uint256"}],"outputs":[],"stateMutability":"nonpayable"},{"type":"function","name":"setRewardPercentages","inputs":[{"name":"_reporterPct","type":"uint256","internalType":"uint256"},{"name":"_validatorPct","type":"uint256","internalType":"uint256"}],"outputs":[],"stateMutability":"nonpayable"},{"type":"function","name":"supportsInterface","inputs":[{"name":"interfaceId","type":"bytes4","internalType":"bytes4"}],"outputs":[{"name":"","type":"bool","internalType":"bool"}],"stateMutability":"view"},{"type":"function","name":"totalDeposited","inputs":[],"outputs":[{"name":"","type":"uint256","internalType":"uint256"}],"stateMutability":"view"},{"type":"function","name":"totalPaid","inputs":[],"outputs":[{"name":"","type":"uint256","internalType":"uint256"}],"stateMutability":"view"},{"type":"function","name":"upgradeToAndCall","inputs":[{"name":"newImplementation","type":"address","internalType":"address"},{"name":"data","type":"bytes","internalType":"bytes"}],"outputs":[],"stateMutability":"payable"},{"type":"function","name":"validatorRewardPercentage","inputs":[],"outputs":[{"name":"","type":"uint256","internalType":"uint256"}],"stateMutability":"view"},{"type":"event","name":"ConfigUpdated","inputs":[{"name":"param","type":"string","indexed":false,"internalType":"string"},{"name":"newValue","type":"uint256","indexed":false,"internalType":"uint256"}],"anonymous":false},{"type":"event","name":"FundsDeposited","inputs":[{"name":"government","type":"address","indexed":true,"internalType":"address"},{"name":"amount","type":"uint256","indexed":false,"internalType":"uint256"},{"name":"timestamp","type":"uint256","indexed":false,"internalType":"uint256"}],"anonymous":false},{"type":"event","name":"Initialized","inputs":[{"name":"version","type":"uint64","indexed":false,"internalType":"uint64"}],"anonymous":false},{"type":"event","name":"RewardReleased","inputs":[{"name":"reportId","type":"bytes32","indexed":true,"internalType":"bytes32"},{"name":"reporter","type":"address","indexed":true,"internalType":"address"},{"name":"validators","type":"address[]","indexed":false,"internalType":"address[]"},{"name":"totalAmount","type":"uint256","indexed":false,"internalType":"uint256"}],"anonymous":false},{"type":"event","name":"RoleAdminChanged","inputs":[{"name":"role","type":"bytes32","indexed":true,"internalType":"bytes32"},{"name":"previousAdminRole","type":"bytes32","indexed":true,"internalType":"bytes32"},{"name":"newAdminRole","type":"bytes32","indexed":true,"internalType":"bytes32"}],"anonymous":false},{"type":"event","name":"RoleGranted","inputs":[{"name":"role","type":"bytes32","indexed":true,"internalType":"bytes32"},{"name":"account","type":"address","indexed":true,"internalType":"address"},{"name":"sender","type":"address","indexed":true,"internalType":"address"}],"anonymous":false},{"type":"event","name":"RoleRevoked","inputs":[{"name":"role","type":"bytes32","indexed":true,"internalType":"bytes32"},{"name":"account","type":"address","indexed":true,"internalType":"address"},{"name":"sender","type":"address","indexed":true,"internalType":"address"}],"anonymous":false},{"type":"event","name":"Upgraded","inputs":[{"name":"implementation","type":"address","indexed":true,"internalType":"address"}],"anonymous":false},{"type":"error","name":"AccessControlBadConfirmation","inputs":[]},{"type":"error","name":"AccessControlUnauthorizedAccount","inputs":[{"name":"account","type":"address","internalType":"address"},{"name":"neededRole","type":"bytes32","internalType":"bytes32"}]},{"type":"error","name":"AddressEmptyCode","inputs":[{"name":"target","type":"address","internalType":"address"}]},{"type":"error","name":"ERC1967InvalidImplementation","inputs":[{"name":"implementation","type":"address","internalType":"address"}]},{"type":"error","name":"ERC1967NonPayable","inputs":[]},{"type":"error","name":"FailedCall","inputs":[]},{"type":"error","name":"InvalidInitialization","inputs":[]},{"type":"error","name":"NotInitializing","inputs":[]},{"type":"error","name":"UUPSUnauthorizedCallContext","inputs":[]},{"type":"error","name":"UUPSUnsupportedProxiableUUID","inputs":[{"name":"slot","type":"bytes32","internalType":"bytes32"}]}],"bytecode":{"object":"0x60a080604052346100cc57306080527ff0c57e16840df040f15088dc2f81fe391c3923bec73e23a9662efc9c229c6a009081549060ff8260401c166100bd57506001600160401b036002600160401b031982821601610078575b60405161157f90816100d28239608051818181610cc50152610da70152f35b6001600160401b031990911681179091556040519081527fc7f505b2f371ae2175ee4913f4499e1f2633a7b5936321eed1cdaeb6115181d290602090a1388080610059565b63f92ee8a960e01b8152600490fd5b600080fdfe60806040908082526004908136101561005e575b50361561001f57600080fd5b61002a34825461114b565b90557fbee4fe3675934fca827426c793623996a3079255089bda3a717019ffc5db27658151913483524260208401523392a2005b600090813560e01c90816301ffc9a71461102257508063134ec70214610ff4578063248a9ca314610fbb5780632f2ff15d14610f9257806336568abe14610f4c5780634f1ef28614610d2c57806352d1902d14610caf5780635a23a8cf14610c1d5780636f50205614610b3857806387355f711461075a57806391d148541461070557806395ccea671461064d5780639b5655dc146106325780639cbed582146105f75780639f0fa001146101e6578063a217fddf146105dc578063ad3cb1cc1461053c578063ae5d32321461051d578063c4d66de814610392578063d547741f14610346578063e240c71c14610329578063e2c41dbc14610237578063e7b0f66614610218578063f0fe70ca146101e6578063f5b541a6146101a75763ff50abdc03610013579190346101a357826003193601126101a35760209250549051908152f35b8280fd5b5082346101e257816003193601126101e257602090517f523a704056dcd17bcf83bed8b68c59416dac1119be77755efe3bde0a64e46e0c8152f35b5080fd5b5082346101e25760203660031901126101e2578060209261ffff6102086110fb565b1681526002845220549051908152f35b5082346101e257816003193601126101e2576020906005549051908152f35b509190826003193601126101a3577fc7a6bfa28ee24953425efb0bb89772445020cd5ae1af751673fd61a47416f01780845260008051602061152a83398151915260205282842033855260205260ff83852054161561030e575034156102d7576102a234825461114b565b90557fbee4fe3675934fca827426c793623996a3079255089bda3a717019ffc5db27658151913483524260208401523392a280f35b6020606492519162461bcd60e51b835282015260126024820152710416d6f756e74206d757374206265203e20360741b6044820152fd5b604492519163e2517d3f60e01b835233908301526024820152fd5b5082346101e257816003193601126101e257602091549051908152f35b5091346101a357806003193601126101a35761038e9135610389600161036a611076565b9383875260008051602061152a833981519152602052862001546111f6565b611412565b5080f35b509190346101a35760203660031901126101a3576103ae611091565b907ff0c57e16840df040f15088dc2f81fe391c3923bec73e23a9662efc9c229c6a009182549160ff83861c16159267ffffffffffffffff811680159081610515575b600114908161050b575b159081610502575b506104f35767ffffffffffffffff1981166001178555836104d4575b5060ff8454861c16156104c657508061043961043f92611229565b506112c9565b5060468455601e6001558380526002602052662386f26fc10000838520556001845266470de4df82000083852055600284526611c37937e0800083852055610485578280f35b805468ff00000000000000001916905551600181527fc7f505b2f371ae2175ee4913f4499e1f2633a7b5936321eed1cdaeb6115181d290602090a138808280f35b8451631afcd79f60e31b8152fd5b68ffffffffffffffffff1916680100000000000000011784553861041e565b50845163f92ee8a960e01b8152fd5b90501538610402565b303b1591506103fa565b8591506103f0565b5082346101e257816003193601126101e2576020906001549051908152f35b509190346101a357826003193601126101a3578151908282019082821067ffffffffffffffff8311176105c95750825260058152602090640352e302e360dc1b6020820152825193849260208452825192836020860152825b8481106105b357505050828201840152601f01601f19168101030190f35b8181018301518882018801528795508201610595565b634e487b7160e01b855260419052602484fd5b5082346101e257816003193601126101e25751908152602090f35b5082346101e257816003193601126101e257602090517fc7a6bfa28ee24953425efb0bb89772445020cd5ae1af751673fd61a47416f0178152f35b5082346101e257816003193601126101e25751478152602090f35b5091346101a357806003193601126101a357610667611091565b6024359061067361119e565b4782116106cb578480809381935af161068a61116e565b5015610694578280f35b906020606492519162461bcd60e51b8352820152601160248201527015da5d1a191c985dd85b0819985a5b1959607a1b6044820152fd5b825162461bcd60e51b81526020818601526014602482015273496e73756666696369656e742062616c616e636560601b6044820152606490fd5b509190346101a357816003193601126101a3578160209360ff92610727611076565b9035825260008051602061152a83398151915286528282206001600160a01b039091168252855220549151911615158152f35b5091346101a35760803660031901126101a35781359060249283359361ffff8516809503610b34578560449182359660018060a01b0380891698898103610b305760649081359767ffffffffffffffff94858a11610b2c573660238b011215610b2c5789820135958611610b2c5736878760051b8c010111610b2c577f523a704056dcd17bcf83bed8b68c59416dac1119be77755efe3bde0a64e46e0c80895260ff8c60209a60008051602061152a8339815191528c528181203382528c5220541615610b10575060ff8b8f8e815260038b52205416610ad8578c15610aa4578515610a735761084d600282111561110c565b8d5260028752898d205497884710610a33578d54808a02908a8204148a151715610a2157849004808a038a8111610a0e578f8080938a829404975af161089161116e565b50156109ce57989998939594938d805b86821061094f5793505050508991505260038452858a2091600192600160ff198254161790556108d38660055461114b565b6005558187519780890190895252606087019701928a905b8282106109245750505050508201527fdc85a8e7c618fd9c6101293c2b9dc02e75755c546fffdbcf7f34980d54a4a8f69181900390a380f35b90919293969787359082821680920361094b579081528501979685019392918301906108eb565b8c80fd5b878260059e9d9e9a98999a1b8d01013587811681036101e25781808781935af161097761116e565b501561098d576001018e9b9a9b979695976108a1565b508a5162461bcd60e51b81529182018890526019828801527f56616c696461746f72207472616e73666572206661696c656400000000000000908201529050fd5b8a5162461bcd60e51b81529182018890526018828801527f5265706f72746572207472616e73666572206661696c65640000000000000000908201529050fd5b50634e487b7160e01b8f5260118352878ffd5b634e487b7160e01b8f5260118352878ffd5b8a5162461bcd60e51b8152918201889052601d828801527f496e73756666696369656e742074726561737572792062616c616e6365000000908201529050fd5b50895162461bcd60e51b8152908101879052600d818701526c4e6f2076616c696461746f727360981b818901529050fd5b50895162461bcd60e51b81529081018790526010818701526f24b73b30b634b2103932b837b93a32b960811b818901529050fd5b50895162461bcd60e51b81529081018790526014818701527314995dd85c991cc8185b1c9958591e481c185a5960621b818901529050fd5b8b5163e2517d3f60e01b81523381850152808901919091528990fd5b8780fd5b8480fd5b8580fd5b5090346101e257826003193601126101e257803560243591610b5861119e565b6064610b64848461114b565b03610bea575083608092828493865581600155825190838252600b848301526a1c995c1bdc9d195c9418dd60aa1b606083015260208201527f12c9dccd129ff783f1c8228eacdfa8e334ddecb7ec5c9a79ec662a4aed3d012a948591a1600c8251928084528301526b1d985b1a59185d1bdc9418dd60a21b60608301526020820152a180f35b606490602086519162461bcd60e51b8352820152600d60248201526c4d7573742073756d203130302560981b6044820152fd5b5082346101e257806003193601126101e25760807f12c9dccd129ff783f1c8228eacdfa8e334ddecb7ec5c9a79ec662a4aed3d012a91610c5b6110fb565b61ffff60243591610c6a61119e565b16610c78600282111561110c565b855260026020528082862055600e8251928084528301526d18d85d1959dbdc9e54995dd85c9960921b60608301526020820152a180f35b50829034610d295780600319360112610d2957507f00000000000000000000000000000000000000000000000000000000000000006001600160a01b03163003610d1c57602090517f360894a13ba1a3210667c828492db98dca3e2076cc3735a920a3ca505d382bbc8152f35b5163703e46dd60e11b8152fd5b80fd5b5091806003193601126101a357610d41611091565b9060249384359267ffffffffffffffff84116101e257366023850112156101e2578385013590610d70826110df565b91610d7d855193846110a7565b80835260209536898383010111610b30578185928a89930183870137840101526001600160a01b037f00000000000000000000000000000000000000000000000000000000000000008116308114908115610f1e575b50610f0e57610de061119e565b84516352d1902d60e01b815290821695808289818a5afa9182918693610ede575b5050610e1c57505050505191634c9c8ce360e01b8352820152fd5b9093919492967f360894a13ba1a3210667c828492db98dca3e2076cc3735a920a3ca505d382bbc91828103610ec95750843b15610eb5575080546001600160a01b0319168317905551907fbc7cd75a20ee27fd9adebab32041f755214dbc6bffa90cc0225b39da2e5c2d3b8680a2825115610e9c575061038e9250611495565b91505034610ea957505080f35b63b398979f60e01b8152fd5b8251634c9c8ce360e01b8152808801859052fd5b8351632a87526960e21b815280890191909152fd5b9080929350813d8311610f07575b610ef681836110a7565b81010312610b305751903880610e01565b503d610eec565b845163703e46dd60e11b81528790fd5b9050817f360894a13ba1a3210667c828492db98dca3e2076cc3735a920a3ca505d382bbc5416141538610dd3565b5082346101e257806003193601126101e257610f66611076565b90336001600160a01b03831603610f83575061038e919235611412565b5163334bd91960e11b81528390fd5b5091346101a357806003193601126101a35761038e9135610fb6600161036a611076565b61138b565b509190346101a35760203660031901126101a3578160209360019235815260008051602061152a83398151915285522001549051908152f35b509190346101a35760203660031901126101a3578160209360ff923581526003855220541690519015158152f35b905082346101a35760203660031901126101a3573563ffffffff60e01b81168091036101a35760209250637965db0b60e01b8114908115611065575b5015158152f35b6301ffc9a760e01b1490508361105e565b602435906001600160a01b038216820361108c57565b600080fd5b600435906001600160a01b038216820361108c57565b90601f8019910116810190811067ffffffffffffffff8211176110c957604052565b634e487b7160e01b600052604160045260246000fd5b67ffffffffffffffff81116110c957601f01601f191660200190565b6004359061ffff8216820361108c57565b1561111357565b60405162461bcd60e51b815260206004820152601060248201526f496e76616c69642063617465676f727960801b6044820152606490fd5b9190820180921161115857565b634e487b7160e01b600052601160045260246000fd5b3d15611199573d9061117f826110df565b9161118d60405193846110a7565b82523d6000602084013e565b606090565b3360009081527fb7db2dd08fcb62d0c9e08c51941cae53c267786a0b75803fb7960902fc8ef97d602052604081205460ff16156111d85750565b6044906040519063e2517d3f60e01b82523360048301526024820152fd5b8060005260008051602061152a83398151915260205260406000203360005260205260ff60406000205416156111d85750565b6001600160a01b031660008181527fb7db2dd08fcb62d0c9e08c51941cae53c267786a0b75803fb7960902fc8ef97d602052604081205490919060008051602061152a8339815191529060ff166112c4578280526020526040822081835260205260408220600160ff1982541617905533917f2f8788117e7eff1d82e926ec794901d17c78024a50270940304540a733656f0d8180a4600190565b505090565b6001600160a01b031660008181527f5dfc6369ede8c1331430c00b581919993675ec010140508e8a499d5c8bfbd93760205260408120549091907f523a704056dcd17bcf83bed8b68c59416dac1119be77755efe3bde0a64e46e0c9060008051602061152a8339815191529060ff16611385578184526020526040832082845260205260408320600160ff198254161790557f2f8788117e7eff1d82e926ec794901d17c78024a50270940304540a733656f0d339380a4600190565b50505090565b9060009180835260008051602061152a83398151915280602052604084209260018060a01b03169283855260205260ff60408520541615600014611385578184526020526040832082845260205260408320600160ff198254161790557f2f8788117e7eff1d82e926ec794901d17c78024a50270940304540a733656f0d339380a4600190565b9060009180835260008051602061152a83398151915280602052604084209260018060a01b03169283855260205260ff60408520541660001461138557818452602052604083208284526020526040832060ff1981541690557ff6391f5c32d9c69d2a47ea670b442974b53935d1edc7fd64eb21e047a839171b339380a4600190565b9060008091602081519101845af48080611516575b156114cb5750506040513d81523d6000602083013e60203d82010160405290565b156114f257604051639996b31560e01b81526001600160a01b039091166004820152602490fd5b3d15611504576040513d6000823e3d90fd5b60405163d6bda27560e01b8152600490fd5b503d1515806114aa5750813b15156114aa56fe02dd7bc7dec4dceedda775e58dd541e08a116c6c53815c0bd028192f7b626800a2646970667358221220630d50b0ed7d1ffade082845e0751617b56ebc3920cfd475c6b5edeb659afd1164736f6c63430008170033","linkReferences":{}},"methodIdentifiers":{"DEFAULT_ADMIN_ROLE()":"a217fddf","GOVERNMENT_ROLE()":"9cbed582","OPERATOR_ROLE()":"f5b541a6","UPGRADE_INTERFACE_VERSION()":"ad3cb1cc","categoryRewards(uint16)":"f0fe70ca","depositFunds()":"e2c41dbc","emergencyWithdraw(address,uint256)":"95ccea67","getCategoryReward(uint16)":"9f0fa001","getRoleAdmin(bytes32)":"248a9ca3","getTreasuryBalance()":"9b5655dc","grantRole(bytes32,address)":"2f2ff15d","hasRole(bytes32,address)":"91d14854","initialize(address)":"c4d66de8","proxiableUUID()":"52d1902d","releaseRewards(bytes32,uint16,address,address[])":"87355f71","renounceRole(bytes32,address)":"36568abe","reporterRewardPercentage()":"e240c71c","revokeRole(bytes32,address)":"d547741f","rewardsPaid(bytes32)":"134ec702","setCategoryReward(uint16,uint256)":"5a23a8cf","setRewardPercentages(uint256,uint256)":"6f502056","supportsInterface(bytes4)":"01ffc9a7","totalDeposited()":"ff50abdc","totalPaid()":"e7b0f666","upgradeToAndCall(address,bytes)":"4f1ef286","validatorRewardPercentage()":"ae5d3232"},"id":31}