{"abi":[{"type":"function","name":"PAYMASTER_DATA_OFFSET","inputs":[],"outputs":[{"name":"","type":"uint256","internalType":"uint256"}],"stateMutability":"view"},{"type":"function","name":"PAYMASTER_POSTOP_GAS_OFFSET","inputs":[],"outputs":[{"name":"","type":"uint256","internalType":"uint256"}],"stateMutability":"view"},{"type":"function","name":"PAYMASTER_VALIDATION_GAS_OFFSET","inputs":[],"outputs":[{"name":"","type":"uint256","internalType":"uint256"}],"stateMutability":"view"}],"bytecode":{"object":"0x608080604052346100195760bb908161001f823930815050f35b600080fdfe6080806040526004361015601257600080fd5b600090813560e01c90816325093e1b14606c57508063b29a8ff41460565763ede3150214603e57600080fd5b80600319360112605357602060405160348152f35b80fd5b5080600319360112605357602060405160148152f35b90508160031936011260815780602460209252f35b5080fdfea26469706673582212209454e15cec483a5aee9e1d52729064f646a41ea58311f06081108eb05fabf11964736f6c63430008170033","linkReferences":{}},"methodIdentifiers":{"PAYMASTER_DATA_OFFSET()":"ede31502","PAYMASTER_POSTOP_GAS_OFFSET()":"25093e1b","PAYMASTER_VALIDATION_GAS_OFFSET()":"b29a8ff4"},"id":2}